:020000040800F2
:1000000000000220B902000859440008C502000897
:1000100061440008654400086944000800000000CD
:10002000000000000000000000000000CD030008F8
:100030006D44000800000000D5030008714400086A
:10004000E90300087D440008E9030008E90300080B
:10005000E903000885440008E9030008E9030008F3
:10006000E9030008E9030008E9030008E9030008C0
:10007000E9030008E9030008E9030008E9030008B0
:1000800089440008E903000899440008E9030008CE
:10009000E9030008E9030008E9030008E903000890
:1000A000E9030008A9440008E9030008E90300087F
:1000B000E9030008E9030008E9030008E903000870
:1000C000E9030008E9030008E9030008E903000860
:1000D000E5460008E9030008E9030008E903000811
:1000E000E9030008E9030008E9030008E903000840
:1000F000E9030008E9030008F5460008E9030008E1
:10010000E9030008E9030008E9030008E90300081F
:10011000E9030008E903000885360008E903000840
:1001200005470008E9030008E9030008E90300089F
:10013000E90300080000000000000000E9030008D7
:10014000E9030008E9030008E9030008E9030008DF
:10015000E9030008E9030008E9030008E9030008CF
:10016000E9030008E9030008E9030008E9030008BF
:10017000E9030008E9030008000000000000000097
:10018000E9030008E903000800B583B003F0FCFAB6
:10019000384B394A1360394A136039490CE00A6810
:1001A0004B6801F10C04886803E01168196004339E
:1001B00004329842F9D82146324B9942EFD32E4B64
:1001C0001A68314B9A4204D12C4B1A682F4B9A4231
:1001D00000D0FEE7274B2E4A13602E4A13602E4BA9
:1001E0000AE0194651F8082B5B6802E00020106015
:1001F00004329A42FAD30B46284A9342F1D3244B55
:100200001B6813B9234B1B6803B1FEE703F098FC8E
:10021000694601A803F062FA214C224B1C1BA41072
:10022000002504E01E4B53F8253098470135AC42B9
:10023000F8DC1D4C1D4B1C1BA410002504E01A4BC0
:1002400053F8253098470135AC42F8DC0099019805
:1002500003F0CEFE0546164C164B1C1BA41004E002
:10026000013C134B53F824309847002CF8DC284607
:1002700003F010FABABADECA0000002080000020A5
:10028000EC030008040400087856341232547698BF
:1002900084000020700400200404000814040008F6
:1002A00014040008140400081404000814040008CE
:1002B000140400081404000808B5FFF765FF00BF28
:1002C00000BEFEE71EF0040F0CBFEFF30880EFF353
:1002D00009807146414A10472DE9F04182B0044639
:1002E0008846134B5E6B9F6B9D6A1B6B13F0020F6E
:1002F0000DD00F4BDB6A002B09DA4BF6AB6103F034
:10030000CDFA20B14FF00042094BDA620CE0094807
:1003100003F0ECF9CDF800803B46324629462046F2
:1003200003F044FA00BEFEE702B0BDE8F08100BF72
:1003300000ED00E03868000800BEFEE71EF0040F84
:100340000CBFEFF30880EFF309807146244A104791
:100350002DE9F04182B004468846084B5E6B9F6BE6
:100360009D6A074803F0C2F9CDF800803B4632464B
:100370002946204603F01AFA00BEFEE700ED00E031
:10038000486800081EF0040F0CBFEFF30880EFF37D
:1003900009807146134A10472DE9F04182B00446A6
:1003A0008846084B5E6B9F6B9D6A074803F09EF979
:1003B000CDF800803B4632462946204603F0F6F948
:1003C00000BEFEE700ED00E05468000800BEFEE756
:1003D00000BEFEE700BEFEE770470000D90200083D
:0C03E000510300089903000800BEFEE76E
:1003EC00446D00080000002084000020446D0008CB
:1003FC000000001000000010840000207404002095
:08040C000000001000000010C8
:1004200008B50B4B1A6842F400721A601A6842F45D
:1004300080621A601A6842F480721A60032000F029
:1004400055FC002003F0D6F803F06EFE002008BD36
:10045000003C0240024A136801331360704700BF3A
:100460008C010020014B1868704700BF8C010020F0
:1004700010B50446504B5A6822F440325A6059680D
:1004800042680A435A600268536823F480735360D9
:1004900002685368016943EA0123536002685368A4
:1004A00023F0407353600268516883680B435360C4
:1004B0000268936823F40063936002689168C368DC
:1004C0000B439360826A3D4B9A4214D00268936852
:1004D00023F07063936002689168836A0B439360B2
:1004E0000268936823F04053936002689168C36A7E
:1004F0000B43936009E00268936823F07063936094
:100500000268936823F0405393602268936823F055
:100510000203936022689368A16943EA41039360F0
:10052000236A03B3636A013B072B04D940F20461D9
:10053000234803F00DFD2268536843F400635360C1
:100540002268536823F460435360636A013B4FF4AD
:10055000604292FAA2F2B2FA82F2934021684A68AB
:1005600013434B6004E02268536823F40063536034
:100570002268D36A23F47003D3622168CA6AE369EC
:10058000013B42EA0353CB622268936823F4007371
:10059000936022689368216B43EA41239360226849
:1005A000936823F48063936022689368616943EAE7
:1005B0008123936010BD00BF002301400100000FA4
:1005C00018650008002800F0DE8010B504460368B6
:1005D0006E4A93420CD002F58072934208D002F525
:1005E0008072934204D040F20D11694803F0B0FCD0
:1005F00063686BB1B3F5803F0AD0B3F5003F07D015
:10060000B3F5403F04D04FF48771614803F0A0FC7C
:10061000A3686BB1B3F1807F0AD0B3F1007F07D03C
:10062000B3F1407F04D040F20F11594803F090FC21
:100630002369012B04D94FF48871554803F088FCD5
:10064000A369012B04D940F21111514803F080FC39
:10065000A36AA3B3B3F1807F31D0B3F1007F2ED072
:10066000B3F1407F2BD0B3F1806F28D0B3F1A06FEE
:1006700025D0B3F1C06F22D0B3F1E06F1FD0B3F13A
:10068000006F1CD0B3F1106F19D0B3F1206F16D0EA
:10069000B3F1306F13D0B3F1406F10D0B3F1506F9E
:1006A0000DD0B3F1606F0AD0B3F1706F07D0394A43
:1006B000934204D04FF48971354803F049FCE36854
:1006C0003BB1B3F5006F04D040F21311304803F092
:1006D0003FFCE369013B0F2B04D94FF48A712C488E
:1006E00003F036FC236B012B04D940F21511284886
:1006F00003F02EFC6369022B04D94FF48B7124485C
:1007000003F026FC236A012B04D940F2171120487C
:1007100003F01EFCA26A1F4B9A420FD0E36A6BB132
:10072000B3F1805F0AD0B3F1005F07D0B3F1405F4F
:1007300004D040F21B11164803F00AFC236C2BB9BD
:10074000636484F83C30204603F02AFD236C13F0E8
:10075000100F13D1236C23F4885323F0020343F0CA
:10076000020323642046FFF783FE00206064236CAD
:1007700023F0030343F00103236400E0012000237E
:1007800084F83C3010BD0120704700BF00200140BC
:10079000186500080100000F70B582B004460D46D0
:1007A0001646002301938369012B04D940F2FA31E4
:1007B0004F4803F0CDFBE36A6BB1B3F1805F0AD021
:1007C000B3F1005F07D0B3F1405F04D040F2FB31DA
:1007D000474803F0BDFB94F83C30012B7CD001234B
:1007E00084F83C3023689A6812F0010F13D19A689C
:1007F00042F001029A603F4B1B683F4AA2FB032371
:100800009B0C03EB4303019302E0019B013B01932B
:10081000019B002BF9D12268936813F0010F5DD082
:10082000236C23F4E06323F0010343F48073236417
:10083000536813F4806F05D0236C23F4405343F4C2
:1008400080532364236C13F4805F04D0636C23F023
:100850000603636401E000236364002384F83C30F2
:10086000A36B264ADA63A36B254A1A64A36B254A55
:100870009A6423686FF002021A602268536843F09A
:10088000806353602268936843F4807393602168A7
:1008900033462A464C31A06B00F072FD1A4B5B6860
:1008A00013F01F0F0AD123689A6812F0405F17D126
:1008B0009A6842F080429A60002016E02368134A4A
:1008C00093420FD19A6812F0405F0DD19A6842F0BE
:1008D00080429A60002008E0022006E0002004E048
:1008E000002002E0002000E0002002B070BD00BF48
:1008F000186500080C00002083DE1B431509000862
:100900007D090008110B0008002301400020014070
:10091000704700BF08B5836B1A6C12F0500F26D1D8
:100920001A6C42F400721A641A68916811F0405F00
:1009300019D19969B9B9D16A11F4700F03D09168CE
:1009400011F4806F0FD1516821F0200151601A6CB1
:1009500022F480721A641A6C12F4805F03D11A6C4C
:1009600042F001021A641846FFF7D2FF08BD9B6BE4
:100970009B6C984708BD00BF704700BF08B5806BEF
:10098000FFF7FAFF08BD00BF704700BF704700BF08
:1009900038B504468369012B04D940F269315B48BC
:1009A00003F0D6FAE369013B0F2B04D940F26A3118
:1009B000564803F0CDFA6369022B04D940F26B313B
:1009C000524803F0C5FA22681168536803F0200307
:1009D00011F0020F2DD063B3236C13F0100F03D16D
:1009E000236C43F400732364936813F0405F19D1C0
:1009F000A369BBB9D36A13F4700F03D0936813F4DF
:100A0000806F0FD1536823F020035360236C23F4CD
:100A100080732364236C13F4805F03D1236C43F051
:100A2000010323642046FFF773FF23686FF012026F
:100A30001A60236819685A6802F0800211F0040FE6
:100A400036D0002A34D0226C12F0100F03D1226C61
:100A500042F4005222649A6812F4401F21D19A6B2A
:100A600012F4401F03D09A6812F4806F19D15A68AB
:100A700012F4806F15D19A6812F0405F11D1A2690B
:100A80007AB95A6822F080025A60236C23F48053AA
:100A90002364236C13F4807F03D1236C43F00103A0
:100AA0002364204600F020F923686FF00C021A60DE
:100AB00022681168536803F0400311F0010F0FD052
:100AC00073B1136813F0010F0AD0236C43F4803321
:100AD00023642046FFF758FF23686FF001021A6075
:100AE00022681168536803F0806311F0200F0CD066
:100AF0005BB1636C43F0020363646FF02005156023
:100B00002046FFF743FF23681D6038BD18650008C5
:100B100008B5806B40230364436C43F004034364D3
:100B2000FFF734FF08BD00BF30B583B005460C4663
:100B3000002301930B68122B04D940F2FE41664852
:100B400003F006FA6368013B0F2B04D940F2FF4122
:100B5000614803F0FDF9A368072B04D94FF4A061A5
:100B60005D4803F0F5F995F83C30012B00F0B180B9
:100B7000012385F83C302368092B17D92868C268FF
:100B80009BB203EB43031E3B072101FA03F322EA66
:100B90000303C3602968C868A268238803EB430382
:100BA0001E3B02FA03F30343CB6013E0286802699B
:100BB0009BB203EB4303072101FA03F322EA030389
:100BC000036129680869A368228802EB4202934006
:100BD00003430B616368062B16D82868426B03EB4E
:100BE0008303053B1F2101FA03F322EA0303436356
:100BF0002968486B2288636803EB8303053B02FA8C
:100C000003F303434B632EE00C2B16D82868026BCA
:100C100003EB8303233B1F2101FA03F322EA0303BF
:100C200003632968086B2288636803EB8303233B13
:100C300002FA03F303430B6315E02868C26A03EB6F
:100C40008303413B1F2101FA03F322EA0303C3623A
:100C50002968C86A2288636803EB8303413B02FA70
:100C600003F30343CB622A681C4B9A4207D12368E3
:100C7000122B04D11A4A536843F4800353602A6844
:100C8000164B9A4221D12368103B012B1DD8144AE0
:100C9000536843F4000353602368102B15D1114BA4
:100CA0001B6802F1467202F52E3202F28332A2FB79
:100CB00003239B0C03EB83035A00019202E0019B88
:100CC000013B0193019B002BF9D1002085F83C00EA
:100CD00000E0022003B030BD18650008002001408C
:100CE000002301400C000020704700BF10B50446EF
:100CF000C31E042B03D9A421094803F029F9094A8A
:100D0000D36823F4E0631B041B0C240204F4E064A6
:100D1000234343F0BF6343F40033D36010BD00BFEF
:100D20004865000800ED00E070B504460E46154623
:100D30000F2A03D9BC211A4803F00AF90F2E03D950
:100D4000BD21174803F004F9164BDA68C2F30222FA
:100D5000C2F10701042928BF0421131D062B01D964
:100D6000033A00E00022012303FA01F10139314086
:100D7000914003FA02F2013A2A400A43002C06DAB3
:100D800004F00F041201D2B2074B1A5570BD1201C4
:100D9000D2B204F1604404F5614484F8002370BDCC
:100DA0004865000800ED00E014ED00E010B5041EF9
:100DB00003DAD021064803F0CBF8620904F01F04DF
:100DC000012303FA04F4034B43F8224010BD00BF93
:100DD0004865000800E100E00138B0F1807F0AD2E8
:100DE000064B5860F021064A82F8231000209860D4
:100DF00007221A6070470120704700BF10E000E032
:100E000000ED00E010B50446042805D020B140F202
:100E1000B311084803F09CF8042C05D1064A136866
:100E200043F00403136010BD034A136823F0040366
:100E3000136010BD4865000810E000E0704700BF77
:100E400008B5FFF7FBFF08BDC8B110B5044602683E
:100E50000C4B9A4203D0F0210B4803F079F8237928
:100E600013F0FF0F04D100236371204603F0E2F971
:100E700002232371002020610123237110BD012072
:100E8000704700BF007400407C65000838B5044618
:100E90000D4631B1102904D04FF4B7711A4803F050
:100EA00057F86379012B2CD0012363710222227140
:100EB00022681168AB400B43136075B921680B6859
:100EC00003F004030A6802F03802ABB1382A13D1E8
:100ED0004B6843F001034B600EE021680B6803F49C
:100EE00080230A6802F4601233B1B2F5601F03D1A7
:100EF0004B6843F002034B600123237100206071B3
:100F000038BD022038BD00BF7C650008F8B5044636
:100F10000E4615460B68A3B1242B12D00C2B10D013
:100F2000142B0ED01C2B0CD0042B0AD02C2B08D049
:100F3000342B06D03C2B04D040F20A311A4803F07F
:100F400007F8736833B1022B04D040F20B31164816
:100F500002F0FEFF35B1102D04D04FF4437112485A
:100F600002F0F6FF6379012B1CD00120607102238F
:100F7000237127683A6840F6FE73AB4022EA03010A
:100F8000336872681343AB400B433B6021680B68C6
:100F9000C02202FA05F523EA05050D602071002044
:100FA0006071F8BD0220F8BD7C650008F0B583B023
:100FB000074614461D46002301930E4631B1102901
:100FC00004D040F24231134802F0C2FF44B1042C75
:100FD00006D0082C04D040F243310E4802F0B8FF8E
:100FE0004FF6F0739D4204D94FF45171094802F055
:100FF000AFFF3B68019326B9019B1C440834019460
:1010000003E0019B1C4414340194019B1D600020EB
:1010100003B0F0BD7C65000870B5054614460E4669
:1010200029B1102903D0C421324802F091FF002CCD
:1010300046D0B4F5807F43D0B4F5007F40D0B4F5FE
:10104000407F3DD0B4F5806F3AD0B4F5A06F37D073
:10105000B4F5C06F34D0B4F5E06F31D0B4F5006FA3
:101060002ED0B4F5106F2BD0B4F5206F28D0B4F586
:10107000306F25D024B3B4F5807F21D0B4F5007F44
:101080001ED0B4F5407F1BD0B4F5806F18D0B4F5F6
:10109000A06F15D0B4F5C06F12D0B4F5E06F0FD0CB
:1010A000B4F5006F0CD0B4F5106F09D0B4F5206F13
:1010B00006D0B4F5306F03D0C5210E4802F048FFCA
:1010C0006B79012B14D00121697102232B712868DF
:1010D00003684FF47C62B24023EA020244F040030A
:1010E00003FA06F41443046029710020687170BD8E
:1010F000022070BDAC65000830B405682C6824F48B
:1011000080242C60046863608368402B04D10368EA
:101110009A600368D96003E0036899600368DA6045
:1011200030BC70470268D3B2103B0B49A1FB0313DC
:101130001B090A49C95C4165032B06D922F47F7259
:1011400022F003020432026504E022F47F7222F0EE
:1011500003020265006D7047ABAAAAAA10660008D8
:10116000002800F0048110B504460368814A9342C8
:1011700031D0183293422ED0183293422BD01832ED
:10118000934228D01832934225D01832934222D06D
:10119000183293421FD0183293421CD002F5567277
:1011A000934218D01832934215D01832934212D07D
:1011B000183293420FD0183293420CD01832934217
:1011C00009D01832934206D01832934203D0C52179
:1011D000694802F0BDFE6368C3B1B3F1007F15D06A
:1011E000B3F1806F12D0B3F1C06F0FD0B3F1006FC5
:1011F0000CD0B3F1206F09D0B3F1406F06D0B3F13A
:10120000606F03D0C6215C4802F0A2FEA3683BB128
:10121000402B05D0802B03D0C721574802F098FE01
:10122000E368B3F5007F04D01BB1C821524802F037
:101230008FFE2369B3F5806F04D01BB1C9214E48DE
:1012400002F086FE63694BB1B3F5006F06D0B3F5CB
:10125000805F03D0CA21484802F07AFEA3694BB1EF
:10126000B3F5005F06D0B3F5804F03D0CB214248E1
:1012700002F06EFEE36943B1B3F5807F05D0202B09
:1012800003D0CC213C4802F063FE236A63B1B3F57E
:10129000803F09D0B3F5003F06D0B3F5403F03D0FF
:1012A000CD21354802F054FE636A2BB1042B03D0E4
:1012B000CE21314802F04CFE636A23B3A36A032BAC
:1012C00003D9D3212C4802F043FEE36A63B1B3F59E
:1012D000000F09D0B3F1807F06D0B3F1C07F03D0F7
:1012E000D421254802F034FE236B63B1B3F5001F0F
:1012F00009D0B3F5800F06D0B3F5C00F03D0D521C8
:101300001D4802F025FE022384F83530206803686A
:101310001A4919406268A3681A43E3681A432369AB
:101320001A4363691A43A3691A43E3691343226AA0
:101330001A4341EA0203626A042A03D1E16A226B7A
:101340000A43134303602268536923F00703616A69
:101350000B43042901D1A16A0B4353612046FFF7D7
:10136000E1FE0020E064012384F8353010BD012047
:10137000704700BF10600240E06500083F8010F039
:10138000F8B590F83440012C2FD01D4616460F4674
:101390000446012380F83430022380F835306A1E79
:1013A0004FF6FE739A4204D940F29911104802F0A8
:1013B000CFFD2068036823F0010303602B4632460B
:1013C00039462046FFF798FE2268136843F01E0353
:1013D00013602268536943F08003536122681368E5
:1013E00043F0010313600020F8BD0220F8BD00BFE8
:1013F000E065000838B50446056D2A68416D08238C
:101400008B401A4219D003681A6812F0040F14D0E6
:101410001A6822F004021A60426D08239340AB6000
:10142000C36C43F00103C364042380F83530002308
:1014300080F83430836C03B198472A68616D584B4B
:101440008B401A421AD023685A6912F0800F15D0C7
:101450005A6922F080025A61626D514B9340AB6031
:10146000E36C43F00203E364042384F83530002383
:1014700084F83430A36C0BB1204698472A68616D1C
:10148000484B8B401A421AD023681A6812F0020F98
:1014900015D01A6822F002021A60626D414B934027
:1014A000AB60E36C43F00403E364042384F8353059
:1014B000002384F83430A36C0BB1204698472A6887
:1014C000616D10238B401A422DD02268116811F0F3
:1014D000080F28D0116811F4802F11D0AB60236859
:1014E0001A6812F4002F03D1312384F8353016E046
:1014F0001B6813F4002F12D0412384F835300EE01E
:10150000136813F4807F03D1136823F0080313607A
:10151000626D10239340AB60312384F83530236C27
:101520000BB1204698472A68616D20238B401A42F0
:1015300034D02268116811F0100F2FD0116811F407
:10154000802F13D0AB6023681A6812F4002F04D1E7
:10155000636C1BB32046984738BD1B6813F4002FFB
:101560001CD0E36BD3B12046984738BD136813F401
:10157000807F03D1136823F010031360626D202372
:101580009340AB60E36CE364112384F835300023AF
:1015900084F83430E36B0BB12046984738BD00BF68
:1015A00001008000040080002DE9F04782B08046F1
:1015B0000F46A14B984223D003F5806398421FD079
:1015C00003F5806398421BD003F58063984217D0DF
:1015D00003F58063984213D003F5806398420FD0DF
:1015E00003F5806398420BD003F58063984207D0DF
:1015F00003F58063984203D0C521904802F0A8FC0F
:101600003B881BB9C6218D4802F0A2FC7B68012BE8
:1016100022D9112B20D0022B1ED0122B1CD0884A8D
:10162000934219D002F58012934215D002F5801230
:10163000934211D0A2F5F81293420DD002F5801218
:10164000934209D002F58012934205D0032B03D0B8
:10165000C7217A4802F07CFCBB68022B03D9C82161
:10166000764802F075FC002526E10124AC403E6876
:101670002640B44240F01F817B68022B01D0122B20
:1016800045D13B699BB3092B31D083B37BB373B393
:101690006BB3012B2BD02AD0022B28D027D026D0F9
:1016A000032B24D0042B22D021D020D0052B1ED0F8
:1016B0001DD0092B1BD0062B19D0092B17D0072BB7
:1016C00015D014D013D0082B11D010D00FD0092B67
:1016D0000DD00CD00A2B0AD009D00C2B07D006D085
:1016E00005D00F2B03D0D921544802F031FCEA0871
:1016F000083258F8220005F0070399000F238B40A9
:1017000020EA03003B698B40034348F82230D8F8B5
:1017100000304FEA450A4FF0030909FA0AF96FEA67
:10172000090903EA09027B6803F0030303FA0AF3D9
:101730001343C8F800307B685A1E012A03D9112BC5
:1017400001D0122B1BD1FB68032B03D9EC213B48A2
:1017500002F0FEFBD8F8083009EA0302FB6803FA3E
:101760000AF31343C8F80830D8F8043023EA040415
:101770007B68C3F30013AB401C43C8F80440D8F89F
:101780000C3009EA0309BB6803FA0AF349EA0303C8
:10179000C8F80C307B6813F0805F00F08C80002369
:1017A0000193284B5A6C42F480425A645B6C03F4F8
:1017B00080430193019BA9088A1C234B53F8220004
:1017C00005F003039B000F229A4020EA02001A4A08
:1017D000904521D002F5806290451FD002F58062CD
:1017E00090451DD002F5806290451BD002F58062C5
:1017F000904519D002F58062904517D002F58062BD
:10180000904515D002F58062904513D002F58062B4
:1018100090451BD108221AE0002218E0012216E0B0
:10182000022214E0032212E0042210E005220EE05E
:1018300006220CE007220AE00000024018660008B9
:10184000000011100038024000380140092202FA5D
:1018500003F3034302311B4A42F821301A4B1A6842
:10186000F34302EA0301786810F4803F01D046EAAE
:101870000201154A1160526803EA0201786810F407
:10188000003F01D046EA02010F4A5160926803EA24
:101890000201786810F4801F01D046EA02010A4A6A
:1018A0009160D2681340796811F4001F01D046EAB4
:1018B0000203054AD36001350F2D7FF6D6AE02B084
:1018C000BDE8F08700380140003C014070B5064695
:1018D00015460C4621B940F2B111084802F038FB18
:1018E000012D04D94FF4D971044802F031FB0DB138
:1018F000B46170BD2404B46170BD00BF18660008F7
:10190000704700BF08B5064B5B6913F4803F05D0F4
:10191000FFF7F6FF4FF48032014B5A6108BD00BF5C
:10192000003C014030B583B0044603680F2B03D957
:10193000F6219C4802F00CFB236813F0010F45D000
:101940006368012B05D9052B03D0FB21954802F0D4
:10195000FFFA954B9B6803F00C03042B0AD0924BC3
:101960009B6803F00C03082B0CD18F4B5B6813F4BE
:10197000800F07D08C4B1B6813F4003F26D06368A0
:1019800023BBCCE12279894B1A7063687BB1FEF7E7
:1019900069FD054605E0FEF765FD401B642800F281
:1019A000C081814B1B6813F4003FF4D00EE0FEF7BA
:1019B00059FD054605E0FEF755FD401B642800F281
:1019C000B281794B1B6813F4003FF4D1236813F004
:1019D000020F6AD0E368012B04D940F22D1171483F
:1019E00002F0B6FA23691F2B04D94FF497716D48A2
:1019F00002F0AEFA6C4B9B6813F00C0F0AD06A4BE6
:101A00009B6803F00C03082B1BD1674B5B6813F436
:101A1000800F16D1644B1B6813F0020F03D0E368EC
:101A2000012B40F082816048036823F0F8012369AC
:101A3000F82292FAA2F2B2FA82F293400B430360C8
:101A400033E0E368FBB10122594B1A60FEF70AFD4F
:101A5000054605E0FEF706FD401B022800F26781FF
:101A6000514B1B6813F0020FF4D04F48036823F06A
:101A7000F8012369F82292FAA2F2B2FA82F29340B4
:101A80000B43036011E00022494B1A60FEF7EAFCA9
:101A9000054605E0FEF7E6FC401B022800F24981FE
:101AA000414B1B6813F0020FF4D1236813F0080FA9
:101AB0002ED06369012B04D94FF4B771394802F075
:101AC00047FA636993B101223A4B1A60FEF7CAFCE8
:101AD000054605E0FEF7C6FC401B022800F22B81FC
:101AE000314B5B6F13F0020FF4D011E00022314B49
:101AF0001A60FEF7B7FC054605E0FEF7B3FC401B95
:101B0000022800F21A81284B5B6F13F0020FF4D108
:101B1000236813F0040F60D0A368012B06D9052BAE
:101B200004D04FF4CC711F4802F012FA0023019345
:101B30001D4B1A6C42F080521A641B6C03F08053E8
:101B40000193019B1C4A136843F480731360FEF7F2
:101B500089FC054605E0FEF785FC401B022800F2E3
:101B6000EE80154B1B6813F4807FF4D0227A134B60
:101B70001A70A3688BB1FEF775FC054607E0FEF707
:101B800071FC401B41F28833984200F2DA80064B28
:101B90001B6F13F0020FF2D01FE0FEF763FC054647
:101BA00016E000BF586600080038024002380240C4
:101BB00000004742800E47420070004070380240EB
:101BC000FEF750FC401B41F28833984200F2BB8084
:101BD000634B1B6F13F0020FF2D1A369022B04D9E0
:101BE00040F2CD115F4802F0B3F9A369002B00F079
:101BF000AC805B4A926802F00C02082A00F0A780D1
:101C0000022B79D1E3693BB1B3F5800F04D04FF4D7
:101C1000EB71544802F09CF9236A3F2B04D940F23F
:101C2000D711504802F094F9636A323BB3F5BF7F95
:101C300004D94FF4EC714B4802F08AF9A36A022BE5
:101C40000AD0042B08D0062B06D0082B04D040F273
:101C5000D911444802F07CF9E36A043B0B2B04D908
:101C60004FF4ED713F4802F073F900223E4B1A60C9
:101C7000FEF7F8FB054604E0FEF7F4FB401B0228E4
:101C800067D8374B1B6813F0007FF5D1E169236AF1
:101C90001943636A47F6C07292FAA2F2B2FA82F26C
:101CA00093401943A36A5B085A1E4FF4403393FADA
:101CB000A3F3B3FA83F302FA03F30B43E26A4FF0A0
:101CC000706191FAA1F1B1FA81F18A401343244A7B
:101CD00053600122244B1A60FEF7C4FB044604E063
:101CE000FEF7C0FB001B022835D81D4B1B6813F004
:101CF000007FF5D0002031E000221B4B1A60FEF778
:101D0000B1FB044604E0FEF7ADFB001B022824D81B
:101D1000134B1B6813F0007FF5D100201EE001205B
:101D20001CE003201AE0032018E0012016E0032045
:101D300014E0032012E0032010E003200EE0032053
:101D40000CE003200AE0032008E0002006E0012068
:101D500004E0032002E0032000E0032003B030BDD4
:101D600000380240586600086000474270B50446DB
:101D70000D460368013B0E2B04D94FF40E718348C6
:101D800002F0E6F8072D04D940F239217F4802F02D
:101D9000DFF87F4B1B6803F00F039D4208D9EBB2BD
:101DA0007B4A1370136803F00F039D4240F0DB8001
:101DB000236813F0020F1DD0A368A3B1802B12D0AB
:101DC000902B10D0A02B0ED0B02B0CD0C02B0AD053
:101DD000D02B08D0E02B06D0F02B04D04FF4147198
:101DE0006A4802F0B5F86B498B6823F0F002A368EB
:101DF00013438B60236813F0010F64D06368032BD7
:101E000004D940F25721614802F0A2F86268012A21
:101E100005D1604B1B6813F4003F0FD1A5E0931E62
:101E2000012B05D85B4B1B6813F0007F06D19EE0A9
:101E3000584B1B6813F0020F00F09B8055498B68CC
:101E400023F0030313438B60FEF70CFB0646636825
:101E5000012B0FD107E0FEF705FB801B41F2883311
:101E6000984200F288804B4B9B6803F00C03042BD4
:101E7000F1D128E0022B0ED106E0FEF7F3FA801B29
:101E800041F28833984278D8424B9B6803F00C03A8
:101E9000082BF2D117E0032B10D13E4B9B68FEF7C5
:101EA000E1FA801B41F288339842F6D967E0FEF7E9
:101EB000D9FA801B41F28833984262D8354B9B682F
:101EC00013F00C0FF3D1324B1B6803F00F039D424C
:101ED00007D2EAB22E4B1A701B6803F00F039D4223
:101EE00051D1236813F0040F19D0E36883B1B3F51F
:101EF000805F0DD0B3F5A05F0AD0B3F5C05F07D007
:101F0000B3F5E05F04D040F2B521204802F020F89C
:101F100020498B6823F4E052E36813438B60236805
:101F200013F0080F1AD0236983B1B3F5805F0DD089
:101F3000B3F5A05F0AD0B3F5C05F07D0B3F5E05F9B
:101F400004D04FF42F71114802F002F8114A93683F
:101F500023F46043216943EAC1039360002001F048
:101F600049FB002070BD012070BD012070BD012023
:101F700070BD012070BD032070BD032070BD032023
:101F800070BD032070BD012070BD00BF5866000801
:101F9000003C02400038024070B588B006460C464E
:101FA0001546012804D940F2FA213B4801F0D0FF40
:101FB00085B1B5F1806F0DD0B5F1A06F0AD0B5F144
:101FC000C06F07D0B5F1E06F04D040F2FB2132487A
:101FD00001F0BEFF76BB6CB1B4F5001F0AD0B4F5BA
:101FE000800F07D0B4F5C00F04D040F2FF212A487B
:101FF00001F0AEFF00230193284E326B42F0010244
:102000003263326B02F001020192019A4FF4807246
:10201000039202220492032206920593079303A9D6
:102020001F48FFF7C1FAB36823F0EC632C431C434D
:10203000B4602EE06CB1B4F1804F0AD0B4F1004F1F
:1020400007D0B4F1404F04D040F21731124801F0EC
:102050007FFF00230293114E326B42F00402326381
:10206000326B02F004020292029A4FF40072039261
:1020700002220492032206920593079303A90948BA
:10208000FFF792FAB36823F0784344EAC5041C438F
:10209000B46008B070BD00BF586600080038024048
:1020A0000000024000080240254B9B6803F00C032F
:1020B000042B3FD0082B01D02248704710B4204B8E
:1020C000586800F03F005B6813F4800F10D01E4B7F
:1020D000B3FBF0F01A4B5A6847F6C0710A4091FA08
:1020E000A1F3B3FA83F322FA03F303FB00F310E046
:1020F000144BB3FBF0F0124B5A6847F6C07402EA77
:10210000040194FAA4F2B2FA82F221FA02F202FB7A
:1021100000F30B4A506800F440324FF4403090FA1C
:10212000A0F0B0FA80F022FA00F001304000B3FBDA
:10213000F0F001E0044870475DF8044B704700BFC1
:10214000003802400024F40000127A0008B5FFF7BE
:10215000ABFF084B9B6803F0F002F02393FAA3F364
:10216000B3FA83F322FA03F3034AD35CD840034B58
:10217000186008BD00380240486600080C000020C6
:1021800008B5FFF7E3FF084B9B6803F4E0524FF4F8
:10219000E05393FAA3F3B3FA83F322FA03F3034A67
:1021A000D35CD84008BD00BF003802404866000834
:1021B0000F2303600B4B9A6802F0030242609A6897
:1021C00002F0F00282609A6802F4E052C2609B68FA
:1021D000DB0803F4E0530361034B1B6803F00F03B8
:1021E0000B60704700380240003C0240704700BF5F
:1021F00008B5054BDB6813F0800F04D0FFF7F6FF3E
:102200008022024B1A7008BD003802400E3802408E
:10221000F8B505460F4616461C4636E0B4F1FF3FBA
:1022200033D02CB1FEF71EF9069BC01A84422CD87D
:102230002A68536823F0E00353606B68B3F5827F2C
:102240000BD1AB68B3F5004F02D0B3F5806F04D16A
:102250002A68136823F040031360AB6AB3F5005F8C
:102260000BD12A68136823F400531B041B0C136062
:102270002A68136843F400531360012385F8513032
:10228000002385F850300320F8BD2B689B683B4045
:10229000B342C3D10020F8BD10B582B0044600920D
:1022A0000B4600228021FFF7B3FF034620B1636D88
:1022B00043F0200363650323184602B010BD00BF3E
:1022C000002800F0D58010B504460368694A93429F
:1022D0000CD0A2F57842934208D002F58062934276
:1022E00004D04FF48671644801F032FE63683BB15C
:1022F000B3F5827F04D040F20D115F4801F028FE53
:10230000A36853B1B3F5806F07D0B3F5004F04D085
:102310004FF48771584801F01BFEE368B3F5006F76
:1023200005D023B140F20F11534801F011FEA3690B
:10233000B3F5007F08D03BB1B3F5802F04D04FF444
:1023400088714D4801F004FEE36993B1082B10D069
:10235000102B0ED0182B0CD0202B0AD0282B08D0F5
:10236000302B06D0382B04D040F21111424801F036
:10237000EFFD236A33B1802B04D04FF489713E48BE
:1023800001F0E6FD636A33B1102B04D040F2131163
:10239000394801F0DDFD636A83B9236933B1022B4B
:1023A00004D04FF48B71344801F0D2FD6369012BE6
:1023B00004D940F21711304801F0CAFDA36A3BB1BD
:1023C000B3F5005F04D04FF48D712B4801F0C0FDD0
:1023D000A36AB3F5005F0AD1E36A013B4FF6FE72D0
:1023E000934204D940F21D11234801F0B1FD94F845
:1023F000513013F0FF0F05D1002384F850302046F0
:1024000001F064FF022384F851302268136823F03E
:102410004003136021686268A3681A43E3681A43A3
:1024200023691A4363691A43A36903F400731343CE
:10243000E2691343226A1343A26A1A430A602168BD
:10244000638B03F00402636A13434B60A36AB3F522
:10245000005F02D12368E26A1A612268D36923F41B
:102460000063D36100206065012384F8513010BD02
:102470000120704700300140886600082DE9F043D4
:1024800085B004460D46174698460C9E0023ADF8CD
:102490000E30836823B14FF44A718E4801F058FD25
:1024A00094F85030012B00F01081012384F8503053
:1024B000FDF7D8FF814694F85130DBB2012B0ED0E6
:1024C0006368B3F5827F40F0E980A368002B40F099
:1024D000E78094F85130DBB2042B40F0E380002D0C
:1024E00000F0E280002F00F0E180B8F1000F00F072
:1024F000DF8094F85130DBB2012B02D1052384F840
:10250000513000236365A763A4F83E80A4F83C80A3
:102510002563A4F83680A4F8348023646364A36A36
:10252000B3F5005F0BD12268136823F400531B043A
:102530001B0C13602268136843F400531360236874
:102540001A6812F0400F03D11A6842F040021A6074
:10255000E368B3F5006F66D12CE0ABB123689A68ED
:1025600012F0020F10D035F8022BDA60E38E013B37
:102570009BB2E38643B9A36AB3F5005F04D1226836
:10258000136843F480531360E38F53B123689A6850
:1025900012F0010F05D0DB6827F8023BE38F013B07
:1025A000E387B6F1FF3F05D0FDF75CFFC9EB000004
:1025B00086427FD9E38E002BCFD1E28F002ACCD187
:1025C00037E0D3B123689A6812F0020F15D0691C66
:1025D0002A781A73E38E013B9BB2E38653B9A36A50
:1025E000B3F5005F08D12268136843F48053136089
:1025F0000D4602E00D4600E00D46E38F53B123681F
:102600009A6812F0010F05D0DB683B70E38F013B45
:10261000E3870137B6F1FF3F05D0FDF723FFC9EB94
:102620000000864248D9E38E002BCAD1E28F002AEF
:10263000C7D1A36AB3F5005F15D1CDF8009033463A
:10264000012211462046FFF7E3FD28B1636D43F0F8
:1026500002036365032530E02368DB689BB2ADF8B5
:102660000E30BDF80E3023689A6812F0100F08D0B3
:10267000626D42F0020262654FF6EF729A600125C8
:1026800000E000254A4631462046FFF705FEA0B18E
:10269000636D43F02003636501250EE002250CE025
:1026A00002250AE0022508E0012506E0012504E0F4
:1026B000012502E0032500E00325012384F85130C1
:1026C000002384F85030284600E0022005B0BDE821
:1026D000F08300BF88660008704700BF10B584B063
:1026E00002685168936803F04104012C05D111F090
:1026F000400F02D0036C984748E013F0020F05D05A
:1027000011F0800F02D0436C98473FE013F4B07F84
:102710003CD011F0200F39D013F0400F0FD090F8BB
:102720005110C9B2032931D0416D41F00401416516
:1027300000210191D168019191680191019913F0F3
:10274000200F0CD0416D41F0010141650021029143
:1027500091680291116821F040011160029A13F40E
:10276000807F09D0436D43F0080343650023039342
:1027700003689B680393039B0268536823F0E0039C
:102780005360012380F85130FFF7A6FF04B010BD5D
:1027900070B4036A23F001030362036A4268846928
:1027A00024F073040D6844EA050623F002048B68E4
:1027B00023430F4DA84204D00E4CA04203D1012464
:1027C00002E0012400E000245CB123F00803CD689E
:1027D0002B4323F0040322F440724D6915438A69A8
:1027E0002A43426086614A684263036270BC704754
:1027F00000000140000401402DE9F04104460E466E
:10280000036A23F480730362056A4768C36923F08F
:1028100073080B6848EA030825F400738D6843EADF
:102820000525204B984205D003F58063984203D1DB
:10283000012302E0012300E000235BB3F36833B11E
:10284000082B04D041F20D31174801F081FBB36928
:10285000B3F5007F05D023B141F20E31124801F0EB
:1028600077FB7369B3F5807F05D023B141F20F3157
:102870000D4801F06DFB25F40065F36845EA03257A
:1028800025F4806527F44057736947EA0317B36955
:1028900047EA03176760C4F81C807368E363256226
:1028A000BDE8F08100000140B86600082DE9F04164
:1028B00004460F46036A23F480530362056AD0F886
:1028C0000480C66926F4E6430E6843EA062625F42A
:1028D00000538D6843EA0535114B984205D003F546
:1028E0008063984203D1012302E0012300E000232A
:1028F00073B17B69B3F5807F05D023B141F25331C9
:10290000084801F025FB28F480487B6948EA8318D1
:10291000C4F80480E6617B6823642562BDE8F08129
:1029200000000140B866000810B504460368234A59
:10293000934237D0B3F1804F34D0A2F57C4293421A
:1029400030D002F5806293422CD002F5806293422F
:1029500028D002F58062934224D002F5806293422F
:1029600020D002F5704293421CD002F5705293427F
:1029700018D002F58062934214D002F5806293422F
:1029800010D0A2F5983293420CD002F580629342A7
:1029900008D002F58062934204D04FF4B271084827
:1029A00001F0D6FA2268D36843F00103D3602268AD
:1029B000136843F001031360002010BD00000140C4
:1029C000B8660008704700BF704700BF704700BF7F
:1029D000704700BF10B5044603681A6912F0020F71
:1029E00017D0DA6812F0020F13D06FF002021A61EA
:1029F0000123037603689B6913F0030F02D0FFF7EE
:102A0000E3FF04E0FFF7DEFF2046FFF7DFFF0023D0
:102A1000237623681A6912F0040F19D0DA6812F0CD
:102A2000040F15D06FF004021A6102232376236885
:102A30009B6913F4407F03D02046FFF7C5FF05E0F4
:102A40002046FFF7BFFF2046FFF7C0FF0023237695
:102A500023681A6912F0080F19D0DA6812F0080F0B
:102A600015D06FF008021A61042323762368DB690E
:102A700013F0030F03D02046FFF7A6FF05E0204622
:102A8000FFF7A0FF2046FFF7A1FF0023237623686E
:102A90001A6912F0100F19D0DA6812F0100F15D061
:102AA0006FF010021A61082323762368DB6913F4A0
:102AB000407F03D02046FFF787FF05E02046FFF761
:102AC00081FF2046FFF782FF0023237623681A69DF
:102AD00012F0010F09D0DA6812F0010F05D06FF083
:102AE00001021A61204600F0C9FD23681A6912F03C
:102AF000800F09D0DA6812F0800F05D06FF08002E5
:102B00001A61204600F074FD23681A6912F0400F24
:102B100009D0DA6812F0400F05D06FF040021A6158
:102B20002046FFF755FF23681A6912F0200F09D0DD
:102B3000DA6812F0200F05D06FF020021A612046EB
:102B400000F054FD10BD00BF0368454A904214D008
:102B5000B0F1804F13D0A2F57C42904211D002F523
:102B6000806290420FD002F5806290420DD002F553
:102B7000784290420BD101220AE0012208E00122B2
:102B800006E0012204E0012202E0012200E000222E
:102B90001AB123F070034A681343314A90422CD093
:102BA000B0F1804F2BD0A2F57C42904229D002F5A3
:102BB0008062904227D002F58062904225D002F5D3
:102BC0007842904223D002F57052904221D002F513
:102BD000806290421FD002F5806290421DD0A2F523
:102BE000983290421BD002F58062904219D002F5D3
:102BF0008062904217D1012216E0012214E00122E6
:102C000012E0012210E001220EE001220CE001227C
:102C10000AE0012208E0012206E0012204E001228C
:102C200002E0012200E000221AB123F44073CA68D6
:102C3000134303608B68C3620B688362084B98423E
:102C400005D003F58063984203D1012302E00123FC
:102C500000E000230BB10B6903630123436170475C
:102C60000000014000286DD010B504460368364AC4
:102C7000934236D0B3F1804F33D0A2F57C429342D9
:102C80002FD002F5806293422BD002F580629342EE
:102C900027D002F58062934223D002F580629342EE
:102CA0001FD002F5704293421BD002F5705293423E
:102CB00017D002F58062934213D002F580629342EE
:102CC0000FD0A2F5983293420BD002F58062934266
:102CD00007D002F58062934203D0D9211B4801F04E
:102CE00037F9A3685BB1102B09D0202B07D0402BFC
:102CF00005D0602B03D0DA21144801F029F92369AB
:102D00004BB1B3F5807F06D0B3F5007F03D0DB2154
:102D10000E4801F01DF994F8393013F0FF0F05D17A
:102D2000002384F83830204601F03AFB022384F86F
:102D30003930211D2068FFF707FF012384F839305F
:102D4000002010BD0120704700000140B866000857
:102D5000002870D010B504460368384A934237D033
:102D6000B3F1804F34D0A2F57C42934230D002F5CB
:102D7000806293422CD002F58062934228D002F503
:102D80008062934224D002F58062934220D002F503
:102D9000704293421CD002F57052934218D002F553
:102DA0008062934214D002F58062934210D0A2F563
:102DB000983293420CD002F58062934208D002F51B
:102DC0008062934204D040F2F3311D4801F0C0F814
:102DD000A36863B1102B0AD0202B08D0402B06D05B
:102DE000602B04D04FF47D71154801F0B1F82369D0
:102DF00053B1B3F5807F07D0B3F5007F04D040F224
:102E0000F5310F4801F0A4F894F8393013F0FF0FB2
:102E100005D1002384F83830204601F087FA0223D8
:102E200084F83930211D2068FFF78EFE012384F8D5
:102E30003930002010BD0120704700BF0000014064
:102E4000B86600082DE9F04104460E46036A23F0F7
:102E500010030362056AD0F80480876927F4E6430B
:102E60000F6843EA072725F020038D6843EA05151C
:102E7000164B984205D003F58063984203D1012395
:102E800002E0012300E00023BBB1F36833B1082B5B
:102E900004D041F2FB110E4801F05AF825F08005EC
:102EA000F36845EA031525F0400528F44068736986
:102EB00048EA8308B36948EA8308C4F80480A76134
:102EC0007368A3632562BDE8F08100BF0000014084
:102ED000B866000890F83830012B00F02E8170B5EC
:102EE00016460D460446012380F8383062B1042AA4
:102EF0000AD0082A08D00C2A06D0182A04D040F696
:102F00003E418F4801F024F82B68602B06D0702BCF
:102F100004D040F63F418A4801F01AF8AB6833B15B
:102F2000022B04D04FF44461854801F011F82B695D
:102F300033B1042B04D040F64141814801F008F838
:102F4000022384F839300C2E00F2F080DFE816F00E
:102F50000D00EE00EE00EE005500EE00EE00EE007B
:102F60008E00EE00EE00EE00BE002368754A93422C
:102F70002FD0B3F1804F2CD0A2F57C42934228D0C1
:102F800002F58062934224D002F58062934220D001
:102F900002F5784293421CD002F57052934218D049
:102FA00002F58062934214D002F58062934210D001
:102FB000A2F5983293420CD002F58062934208D079
:102FC00002F58062934204D040F649415C4800F02B
:102FD000BFFF29462068FFF7DBFB2268936943F0B7
:102FE000080393612268936923F0040393612268C4
:102FF00091692B690B43936198E02368514A93428E
:103000001FD0B3F1804F1CD0A2F57C42934218D060
:1030100002F58062934214D002F58062934210D090
:1030200002F5784293420CD002F57052934208D0D8
:10303000A2F59432934204D040F65841404800F043
:1030400087FF29462068FFF7FDFE2268936943F455
:10305000006393612268936923F48063936122681B
:103060009369296943EA012393615FE02368354A44
:10307000934217D0B3F1804F14D0A2F57C42934213
:1030800010D002F5806293420CD002F58062934228
:1030900008D002F57842934204D040F667412848B0
:1030A00000F056FF29462068FFF7A6FB2268D36987
:1030B00043F00803D3612268D36923F00403D3618A
:1030C0002268D1692B690B43D3612FE023681D4A25
:1030D000934217D0B3F1804F14D0A2F57C429342B3
:1030E00010D002F5806293420CD002F580629342C8
:1030F00008D002F57842934204D040F67641104859
:1031000000F026FF29462068FFF7D0FB2268D3692C
:1031100043F40063D3612268D36923F48063D361ED
:103120002268D369296943EA0123D361012384F822
:103130003930002084F8380070BD0220704700BF8D
:10314000B86600080000014070B504460E461546FA
:10315000264B98422FD0B0F1804F2CD0A3F57C4362
:10316000984228D003F58063984224D003F5806309
:10317000984220D003F5784398421CD003F5705351
:10318000984218D003F58063984214D003F5806309
:10319000984210D0A3F5983398420CD003F5806381
:1031A000984208D003F58063984204D041F27E2112
:1031B0000F4800F0CDFE66B1042E0AD0082E08D0CC
:1031C0000C2E06D0182E04D041F27F21084800F0C2
:1031D000BFFE012303FA06F2236A23EA02032362F5
:1031E000236AB5401D43256270BD00BF0000014049
:1031F000B866000838B504460D4603683E4A934257
:1032000012D0B3F1804F0FD0A2F57C4293420BD085
:1032100002F58062934207D002F58062934203D0A8
:1032200002F57842934206D135B3042D24D0082DFF
:1032300022D00C2D20D0314A934202D1E5B1042D89
:103240001AD02F4A934200D1B5B12E4A934200D1F1
:1032500095B12D4A934202D175B1042D0CD02B4A61
:10326000934200D145B12A4A934200D125B140F2A0
:103270009941284800F06CFE0C2D1FD8DFE805F0BE
:10328000071E1E1E0D1E1E1E131E1E1E1900226866
:10329000D36843F00203D36010E02268D36843F0A0
:1032A0000403D3600AE02268D36843F00803D360C4
:1032B00004E02268D36843F01003D360012229465A
:1032C0002068FFF741FF23680B4A934205D002F5BF
:1032D0008062934203D1012202E0012200E0002239
:1032E0001AB15A6C42F400425A642268136843F0DF
:1032F00001031360002038BD000001400040014080
:10330000004401400048014000180040001C0040FB
:1033100000200040B866000870B504460E46154609
:10332000184B984217D0B0F1804F14D0A3F57C43CE
:10333000984210D003F5806398420CD003F5806367
:10334000984208D003F57843984204D040F239718E
:103350000D4800F0FDFD46B1042E06D0082E04D025
:1033600040F23A71084800F0F3FD042303FA06F234
:10337000236A23EA02032362236AB5401D432562C0
:1033800070BD00BF00000140E866000838B5044683
:103390000D460368104A934203D002F580629342BF
:1033A00004D145B1042D06D0082D04D04FF464712A
:1033B0000A4800F0CDFD042229462068FFF7ACFF43
:1033C0002268536C43F4004353642268136843F04B
:1033D00001031360002038BD00000140E8660008CA
:1033E00038B504460D460368374A934227D0B3F1F7
:1033F000804F24D0A2F57C42934220D002F5806217
:1034000093421CD002F58062934218D002F580628C
:10341000934214D002F58062934210D002F57042BC
:1034200093420CD002F57052934208D0A2F5943228
:10343000934204D04FF4CB61244800F089FD2B68FF
:1034400093B1102B10D0202B0ED0302B0CD0402B52
:103450000AD0502B08D0602B06D0702B04D040F23D
:1034600059611A4800F074FD6B68802B05D023B1B8
:1034700040F25A61154800F06BFD94F83830012B8A
:103480001FD0012284F83820022384F839302168C3
:103490004B6823F070034B60216848682B68034336
:1034A0004B6021688B6823F080038B6021688868FB
:1034B0006B6803438B6084F83920002084F838005F
:1034C00038BD022038BD00BF00000140E86600089A
:1034D00038B505460C460368424A934217D0B3F10B
:1034E000804F14D0A2F57C42934210D002F5806246
:1034F00093420CD002F58062934208D002F57842E4
:10350000934204D040F27E61374800F021FD2368E9
:10351000B3F5006F05D023B140F27F61324800F06F
:1035200017FD6368B3F5806F05D023B14FF4D06108
:103530002D4800F00DFDA3686BB1B3F5807F0AD074
:10354000B3F5007F07D0B3F5407F04D040F281612E
:10355000254800F0FDFC2369B3F5805F05D023B159
:1035600040F28261204800F0F3FC63693BB1B3F59F
:10357000005F04D040F283611B4800F0E9FCA369BE
:10358000B3F5804F05D023B140F28461164800F0B6
:10359000DFFCE368FF2B04D940F28561124800F09C
:1035A000D7FC95F83830012B1AD0012085F8380067
:1035B000022385F839302968226863681A43A368B2
:1035C0001A43E3681A4323691A4363691A43A369D8
:1035D00013434B6485F83900002085F8380038BD66
:1035E000022038BD00000140E8660008704700BFB7
:1035F000704700BF00B589B0002201463620FDF7B4
:1036000093FB3620FDF7D2FB00230193174B1A6C76
:1036100042F010021A641B6C03F010030193019B2B
:1036200002A903A8FEF7C4FD069B13B9FEF7A8FD87
:1036300002E0FEF7A5FD40000D4BA3FB00239B0C11
:10364000013B0C480C4A026040F2E732C260436022
:10365000002303618360FFF705FB18B90548FFF7F6
:1036600063F900E0012009B05DF804FB0038024076
:1036700083DE1B43900100200010004008B5FCF7DA
:10368000E9FE08BD08B50248FFF7A4F908BD00BF70
:1036900090010020FEE700BF08B50D4B1B6813B971
:1036A0000C4A0B4B1A600A4B1A68C31C23F0030325
:1036B000134409498B4206D902F0A0FA0C23036097
:1036C0004FF0FF3008BD02490B60104608BD00BF37
:1036D000880000207404002000FC01200123036006
:1036E000014B0B60704700BF040000200FB400B511
:1036F00083B004AB53F8042B01938021064802F0F9
:10370000AFFA002803DD0146034800F039F803B0A2
:103710005DF804EB04B07047900000202DE9F04301
:1037200085B004460F46435613BB04252846214660
:10373000ABBE04461FE03546102E28BF10250023DF
:1037400006E014F9011B04AA1A4402F8101C013304
:10375000AB42F6D304AA1344002203F8102CE94626
:103760004FF0040840464946ABBE8046761B00E059
:103770000E46002EDFD1384605B0BDE8F08300BF0D
:1037800008B5FFF7CBFF08BD08B500F097F8054B6B
:10379000054A9A60D3F8882042F47002C3F8882062
:1037A00008BD00BF00ED00E000000008F8B50446C9
:1037B0000D4617461E462648FFF798FF2168254804
:1037C000FFF794FF61682448FFF790FFA168234842
:1037D000FFF78CFFE1682248FFF788FF2169214845
:1037E000FFF784FF61692048FFF780FFA1691F4848
:1037F000FFF77CFFE1691E48FFF778FF1D48FFF7E0
:1038000075FF29461C48FFF771FF1C4CE16A1C48F4
:10381000FFF76CFF216B1B48FFF768FFE16B1A484D
:10382000FFF764FF15F0800F03D039461748FFF704
:103830005DFF15F4004F03D031461548FFF756FFE2
:103840001448FFF753FF06991348FFF74FFFF8BDE1
:103850001C6700082C6700083C6700084C670008DC
:103860005C6700086C6700087C6700088C670008CC
:103870009C670008AC670008B867000800ED00E02E
:10388000C8670008D8670008E8670008F8670008FC
:1038900008680008186800082068000883691A880A
:1038A0008A4207D10268033A012A05D802338361AC
:1038B0000120704700207047002070470F49D1F861
:1038C000883043F47003C1F888300D4B1A6842F019
:1038D00001021A60002098601A6822F0847222F4B3
:1038E00080321A60074A5A601A6822F480221A60ED
:1038F000D8604FF000638B60704700BF00ED00E0C0
:103900000038024010300024224B9B6803F00C0367
:10391000042B07D0082B09D0002B2DD11E4A1F4B9A
:103920001A602CE01E4A1D4B1A6028E0194B5A6899
:103930005B6803F03F0312F4800F09D0184AB2FB12
:10394000F3F2144B5B68C3F3881303FB02F208E045
:10395000114AB2FBF3F30F4A5168C1F3881101FB1E
:1039600003F20C4B5B68C3F3014301335B00B2FB12
:10397000F3F30A4A136002E0074A084B1A60054B4A
:103980009B68C3F30313074AD15C044A1368CB4016
:1039900013607047003802400024F4000C0000203F
:1039A00000127A0064680008D0B52DED028B86B055
:1039B0005B4CE2695B4BDA60226A1A61206801F0B5
:1039C00047FE51A3D3E9002301F096FE06460F46B9
:1039D000606801F03DFE4EA3D3E9002301F08CFEA8
:1039E00002460B463046394601F0D4FC06460F46E7
:1039F00094ED068A18EE100A01F02AFE46A3D3E9D8
:103A0000002301F079FE02460B463046394601F0AC
:103A1000C1FC02F0A3F805EE900A9FED437A002363
:103A20000FE0424AD25607EE902AF8EEE77A3C4A77
:103A300002EB8302D2ED006A67EEA67A37EE277AB0
:103A40000133052BEDDD3A4B93ED015A35EE476A14
:103A500000202EE003EB43014A000244354901EB0C
:103A60008202D2ED007A2E4A02EB8302D2ED006A86
:103A700067EEA67A37EE277A013302E000239FED46
:103A80002A7A052BE6DD83002B4A1A44D2ED007A10
:103A900065EEA77A37EE277A284A1A44D2ED007AE3
:103AA00066EE277A37EE277A06AA134403ED067AE4
:103AB00001300528E2DD1A4B029ADA61049A1A6293
:103AC000002208E0930006A9194451F8181C144874
:103AD000034419600132052AF4DD154BD3ED007A59
:103AE00077EEC57A38EE278A0D4B83ED068A0D4BAB
:103AF000C3ED005A009A5A60019A9A6006B0BDEC74
:103B0000028BD0BDAFF30080C722379918AB0640B7
:103B1000D801CB002B1A8DBF934148E6A7E9F6BF29
:103B2000DC010020000200200000000034690008D1
:103B3000D401002074680008046900081C690008AA
:103B400008B5FCF76DFC00F0ABF9FFF7DDFE08BD32
:103B500070B588B0002400941F4B1A6B42F0040229
:103B60001A631A6B02F004020092009A01941A6B15
:103B700042F001021A631A6B02F001020192019AEB
:103B800002941A6B42F002021A631B6B03F00203E9
:103B90000293029B4FF480730393022304930594D2
:103BA00003260696079403A90C48FDF7FDFC0C4D6F
:103BB00001224FF480512846FDF788FE4FF48053D0
:103BC0000393012304930594069603A92846FDF761
:103BD000EBFC08B070BD00BF00380240000002409E
:103BE0000004024010B582B000240094124B1A6BFE
:103BF00042F480021A631A6B02F480020092009A67
:103C000001941A6B42F400121A631B6B03F4001345
:103C10000193019B224621461020FDF785F81020D4
:103C2000FDF7C4F8224621463820FDF77DF83820FC
:103C3000FDF7BCF802B010BD0038024030B585B0C9
:103C40000F4C104B23604FF4803363600023A3605C
:103C500001252561A5612362E362E360E5612563D7
:103C600065612046FCF7AEFC0A230093019503230F
:103C7000029369462046FCF757FF05B030BD00BFF0
:103C8000180300200020014030B591B0204C214B9A
:103C90002360022363600025A5604FF40073E36096
:103CA000256165612046FFF753F80E950F950EA923
:103CB0002046FFF795FB089509950A950B954FF45B
:103CC00000530C930D9507A92046FFF701FC6023D4
:103CD00000934FF480730193029504950593069524
:103CE0000C2269462046FFF7F5F80C212046FFF725
:103CF00081FA0C212046FFF749FB2268D36843F084
:103D00000103D360204600F06BFB11B030BD00BF53
:103D10006C02002000040140F0B591B0334D344BEB
:103D20002B6001236B604023AB6040F67A03EB60AD
:103D300000242C616C612846FFF70AF80E940F945A
:103D40000EA92846FFF74CFB0794089409940A949F
:103D50000B944FF400530C930D9407A92846FFF7DA
:103D6000B7FB6027009740F23D460196029403940A
:103D7000049405940694224669462846FFF7AAF85B
:103D800000970196029403940494059406940822E3
:103D900069462846FFF79EF821462846FFF72AFA8B
:103DA00021462846FFF7F2FA04212846FFF722FAB7
:103DB00004212846FFF7EAFA08212846FFF71AFAF5
:103DC00008212846FFF7E2FA0C212846FFF712FAED
:103DD0000C212846FFF7DAFA2A68D36843F001037A
:103DE000D360284600F0FCFA11B0F0BD0C040020AE
:103DF0000000014008B50D480D4B03604FF482737D
:103E00004360002383604FF40062C26002220261BB
:103E100043614FF4007282611822C26103624362FF
:103E200083620A23C362FEF74BFA08BD1402002026
:103E30000038004030B583B00A4C0B4B236020465D
:103E4000FDF702F804230093002501952A466946F0
:103E50002046FDF75BF82A4629462046FDF7DCF8A8
:103E600003B030BD600300200074004030B583B063
:103E7000094C0A4B236000256560A560FF23E360C1
:103E80002046FEF7EFFE2023009301956946204669
:103E9000FFF7A6FA03B030BDD003002000100040A9
:103EA00070B594B000240194264B1A6C42F08052F5
:103EB0001A641B6C03F080530193019B0294224B04
:103EC0001A6842F480421A601B6803F4804302932C
:103ED000029B0225089501230B9310230C930E954A
:103EE0000F9408231093A823119312950426139678
:103EF00008A8FDF717FD0F230393049505944FF4CD
:103F0000A05306934FF480530793052103A8FDF7B0
:103F10002DFF4FF0806221462046FEF73DF8FEF768
:103F200015F90A4BA3FB00308009FCF755FF30461A
:103F3000FCF768FF224621464FF0FF30FCF7F4FE05
:103F400014B070BD0038024000700040D34D6210C4
:103F5000704700BFF0B4054600B901251F4A136839
:103F6000083313601E4A9B1A672B01DD1B4B1A6036
:103F70001A4B1C68A58027681A4B1B689C4201D10C
:103F8000184B1F60174B1A6800211E4620E010686E
:103F9000844200D117609088854203D91868206058
:103FA0001C6000253668104B9A4213D013681868BD
:103FB000844200D11F609888854203D91068206030
:103FC00014600025084A934204D01A68013189B26E
:103FD0000C29DCD9B088F0BC704700BF1800002065
:103FE0001801002010000020100100200000000037
:103FF00000B587B0FCF714FAFFF752FFFFF7A8FDF2
:10400000FFF7F0FDFFF71AFEFFF73EFEFFF7F2FEA7
:10401000FFF782FEFFF70EFFFFF728FF0122364968
:104020003648FCF7B9FB01224FF480513448FDF7C4
:104030004DFC00213348FCF729FF00228DF81020A9
:104040008DF811204FF480512D48FDF73FFC0223DD
:104050000093012304AA02A92B48FEF70FFA2A4B6A
:1040600093F85130DBB2022BF9D001224FF480518A
:104070002348FDF72BFC25490B889BB2244A13806B
:10408000244A13889BB20B8023490B889BB2138070
:10409000224A13889BB20B809DF811109DF81030B6
:1040A00003EB0123C3F38F031380108880B2FFF763
:1040B00051FF1B4B1880188880B207EE900AF8EE6B
:1040C000677A17EE900A01F0C3FA07A3D3E9002339
:1040D00001F012FB06A3D3E9002301F059F901F026
:1040E0003DFD104B1860A8E77BD5811FF8819F3FED
:1040F0000000000000A06E40B40200201803002061
:10410000000402406003002014020020500400203C
:1041100052040020B2020020CC03002048040020FA
:10412000B00200204C04002008B50320FCF7DEFD9F
:10413000002211466FF00B00FCF7F6FD002211463D
:104140006FF00A00FCF7F0FD002211466FF0090045
:10415000FCF7EAFD002211466FF00300FCF7E4FDD6
:10416000002211464FF0FF30FCF7DEFD0022114621
:104170000120FCF7D9FD0120FCF718FE00221146B2
:104180000420FCF7D1FD0420FCF710FE00221146AC
:104190000520FCF7C9FD0520FCF708FE08BD00BF9F
:1041A0000268204B9A423BD170B586B00446002687
:1041B000009603F58C335A6C42F480725A645B6C3F
:1041C00003F480730093009B012301930323029364
:1041D000039601A91448FDF7E7F9144D144B2B6021
:1041E0006E60AE60EE604FF480632B614FF400634D
:1041F0006B614FF40053AB614FF48073EB612E623F
:104200006E622846FCF7ACFFA563AC6332463146CC
:104210001220FCF789FD1220FCF7C8FD06B070BD26
:10422000704700BF002001400008024074030020D6
:10423000106402400268214B9A423ED170B586B0AC
:1042400004460026009603F5E2331A6C42F0005251
:104250001A641B6C03F000530093009B102301931E
:1042600003230293039601A91548FDF79DF9154D07
:10427000154B2B604FF060636B604023AB60EE60CA
:104280004FF480632B614FF400636B614FF4005374
:10429000AB614FF48073EB612E626E622846FCF7CF
:1042A0005FFFA560AC63324631463620FCF73CFD2B
:1042B0003620FCF77BFD06B070BD704700740040EF
:1042C00000000240C0020020886002400268154BD6
:1042D0009A4225D110B586B00024009403F500332E
:1042E0001A6C42F480421A641B6C03F480430093FE
:1042F000009B4FF4604301930223029303940494C0
:104300000523059301A90848FDF74EF922462146E9
:104310002420FCF709FD2420FCF748FD06B010BD61
:10432000704700BF003800400004024000B583B071
:104330000368184A934213D100210091164B5A6C1E
:1043400042F001025A645B6C03F001030093009B8E
:104350000A461920FCF7E8FC1920FCF727FD15E0B8
:104360000E4A934212D1002101910B4B5A6C42F03C
:1043700002025A645B6C03F002030193019B0A463C
:104380002E20FCF7D1FC2E20FCF710FD03B05DF8C9
:1043900004FB00BF0000014000380240000401405F
:1043A00002680E4B9A4218D100B583B000210191EA
:1043B00003F50A331A6C42F010021A641B6C03F006
:1043C00010030193019B0A463620FCF7ADFC362012
:1043D000FCF7ECFC03B05DF804FB704700100040F4
:1043E00070B586B00368174A934217D14FF428631B
:1043F0000193022502950024039404940126059656
:1044000001A91148FDF7D0F8019502950394049491
:10441000059601A90D48FDF7C7F810E00C4A934234
:104420000DD14FF4007301930223029300230393F1
:1044300004930323059301A90648FDF7B5F806B0D8
:1044400070BD00BF000001400000024000040240B7
:10445000000401400008024008B5FDF7C9FE08BD90
:10446000FEE700BFFEE700BFFEE700BFFEE700BFBC
:1044700008B5FBF7EFFFFCF7E3FC08BD08B5FDF757
:1044800041FA08BD704700BF08B50248FCF7B2FF0B
:1044900008BD00BFC002002008B50248FCF778FA4A
:1044A00008BD00BF1803002038B52DED028B7A4BF4
:1044B0001B88092B03D80133774A1380DAE040F2D6
:1044C000F132934213D80133734A1380734B196846
:1044D000734A12680A441A601B68724A82FB03120C
:1044E000DB17C3EBA2131BB26F4A1380C2E06F4B02
:1044F00093ED008A6E4DD5ED007A88EE277A17EE9F
:10450000100A01F0A5F800226A4B01F0F5F800222C
:10451000684B00F03FFF5AA3D3E9002301F0ECF809
:1045200001F0FCFA644C6063B1EE488AD5ED007A84
:1045300088EE277A17EE100A01F08AF800225D4B08
:1045400001F0DAF800225B4B00F024FF4CA3D3E922
:10455000002301F0D1F801F0E1FAE063504BD3ED14
:10456000007AB8EE677A504B1B881BB207EE903A80
:10457000F8EEE77A77EE677AF1EE677A17EE900A4F
:1045800001F066F840A3D3E9002301F0DFF901F060
:10459000E5FA4A4B18604A4A138801339BB21380EC
:1045A000B3F53E6F02D10022454B1A80444B188868
:1045B00000EB800001F03AF835A3D3E9002301F0C5
:1045C0009BF801F0CBFA00EE100A00F0A3F8F5EE2C
:1045D000007A20EE270A3B4B83ED000A3A4B83ED2D
:1045E000000A364A12685A60FFF7DEF9374BD3EDFE
:1045F000007A2E4BC3ED007AB3EE097AF4EEC77A57
:10460000F1EE10FA01DD83ED007A284B93ED007A8C
:10461000FBEE097AB4EEE77AF1EE10FA01D5C3EDBC
:10462000007A284BD3ED007A9FED290A67EE807A55
:104630009FED280A37EE800A00F0B4F8FCEEC07A4D
:1046400017EE903A042200212348FCF7AFFC174BE9
:10465000D3ED007AF4EE677AF1EE10FA0AD71F4B29
:104660000022DA611A629A611A605A609A60DA600E
:104670001A615A611A48FEF7ADF9BDEC028B38BDDC
:104680000000000000F4A0406666666666968740FB
:104690005684175486379C3F560400208001002022
:1046A000B4020020D34D6210600400206C0400208E
:1046B0004C0400200000E03F0000014064040020A2
:1046C0005404002058040020D401002000020020DF
:1046D00000007A4500401C4660030020DC010020F9
:1046E0000C04002008B50248FDF7F8FF08BD00BF24
:1046F0001402002008B50248FEF76CF908BD00BF9F
:104700006C02002008B50248FCF774FE08BD00BF2B
:104710007403002000B510EE103A204A23F0004345
:10472000934283B019DDB3F1FF4F04DB30EE400A52
:1047300003B05DF804FB684600F03CF800F00300AD
:1047400001281AD002280FD000B30120DDED010AA4
:104750009DED000A00F014FDEAE7DFED110A00F01C
:1047600075F903B05DF804FBDDED010A9DED000A6B
:1047700000F06CF9B1EE400ADAE7DDED010A9DEDDB
:10478000000A00F0FDFCB1EE400AD1E7DDED010AC0
:104790009DED000A00F05AF9CAE700BFD80F493F63
:1047A0000000000010EE103A23F0004300EE103A33
:1047B000704700BF70B510EE103A964A23F00044DF
:1047C000944286B05FDD944A944210EE106A1BDC7E
:1047D000002BDFED927A924A24F00F0440F3D5804B
:1047E000944270EE677A5ED09FED8E7A77EEC76A5C
:1047F000012377EEE67AC0ED006A77EEC77AC0ED66
:10480000017A184606B070BD874A944205465CDDC1
:10481000B4F1FF4F3FDAE215863AA4EBC25307EE3C
:10482000103AFDEEC76ADFED817AF8EEE66A37EE00
:10483000667ACDED036A27EE277AFDEEC76AF8EEB9
:10484000E66A37EE667ACDED046A67EE277AF5EE12
:10485000407AF1EE10FACDED057A40F0B780F5EE32
:10486000406AF1EE10FA0CBF012302237049019156
:104870000221009103A8294600F06AF9002EC0F237
:104880009780034604E0002280ED000A4260002386
:10489000184606B070BD70EE407A0023C0ED017A74
:1048A000C0ED007AF4E7DFED636A9FED637A77EE9F
:1048B000E67A012377EEC76A77EEE67AC0ED006A02
:1048C00077EEC77AC0ED017AE2E7FFF76BFFDFED25
:1048D0005B6ADFED525A9FED537AF6EE007AE0EE16
:1048E000267AFDEEE77A17EE903AF8EEE76A1F2B8C
:1048F000B1EE666AA6EE250A66EE877A1DDC50499F
:10490000581E24F0FF0251F820108A4215D030EED4
:10491000677A85ED007A30EE470A002E30EE670A9E
:1049200085ED010AB4DAB1EE477AB1EE400A85EDC1
:10493000007A85ED010A5B42AAE730EE677AE4155A
:1049400017EE102AC2F3C752A21A082AE1DDDFEDE2
:10495000397A9FED397AF0EE405AE6EE275A30EE7A
:10496000650AA6EE270AF0EE407AD6EE877A35EE93
:10497000E77A17EE102AC2F3C752A41A192C3ADCB0
:1049800085ED007AB0EE650AC5E7944270EE277AAD
:104990001ED09FED247A77EE876A4FF0FF3377EED3
:1049A000E67AC0ED006A77EE877AC0ED017A6FE7AC
:1049B00095ED007AD5ED017AB1EE477AF1EE677A9E
:1049C000434285ED007AC5ED017A61E703234DE7A7
:1049D000DFED186A9FED187A77EEA67A4FF0FF3375
:1049E00077EE876A77EEE67AC0ED006A77EE877A2F
:1049F000C0ED017A4CE79FED137A9FED135AB0EEAC
:104A0000650AA6EE070A75EEC07AE6EE077AD6EEDC
:104A1000857A7CE7D80F493FE3CB1640800FC93F2A
:104A2000D00FC93F43443537800F494300008043CE
:104A3000BC6900080044353708A3852E84F9223F5D
:104A40003C69000800A3852E32318D2410EE103A07
:104A500023F00043B3F1485F2CDAFDEEC07A17EE85
:104A6000903A002B60D020EE007ADFED314A9FEDC6
:104A7000315ADFED315A9FED316ADFED317ADFEDEA
:104A8000316AA7EE245AE7EE055AA7EE256AE7EE4B
:104A9000067AE7EE276A66EE876A60EEC00AB6EE2F
:104AA000006AE7EE260AF7EE007AD7EE060A37EE3E
:104AB000E00A704720EE007ADFED1D4A9FED1D5A97
:104AC000DFED1D5A9FED1D6ADFED1D7ADFED1D6ADA
:104AD0001D4AA7EE245A9342E7EE055AA7EE256A2F
:104AE000E7EE067AE7EE276A66EE876AD5DD174AB3
:104AF000934214DC03F17F4307EE903AB7EE006A6D
:104B000036EE676A60EEC00AF6EE005AE7EE260A55
:104B1000D7EE257A77EEE07A36EE670A7047B6EE82
:104B2000076AF5EE027AEDE7B7EE000A704700BFBC
:104B30004ED747ADF6740F317CF293B4010DD037E8
:104B4000610BB6BAABAA2A3D9999993E0000483F3D
:104B50002DE9F04F2DED048BD7B05F1EA44C649D62
:104B60000193D31E48BF131D54F82560DB1023EAC0
:104B7000E37303F1010A8B46F11902938146A2EB1C
:104B8000CA0AA3EB070314D41944659801311AAA81
:104B9000002BAABF50F82340DFED967A07EE904A2B
:104BA00003F10103A8BFF8EEE77A8B42E2EC017A49
:104BB000EED1002EC0F2D482019B42A806F1010E74
:104BC0009C0000EB8E0E09EB04013D46002FC0F265
:104BD000BF811AAB03EB8502DFED867A04324B46C8
:104BE000F3EC016A32ED017A8B42E6EE877AF7D177
:104BF000E0EC017A704505F10105E7D106F180434B
:104C0000023B9B0006AA03F10408DFED7C8A9FEDBE
:104C10007A8ACDF810B013444C449044039335463F
:104C200056AB03EB8503002D13ED140A19DD42A9E1
:104C300001EB850305AA60EE287AB0EE407AFDEE1E
:104C4000E77A73ED016AF8EEE77A8B42A7EEC87A4D
:104C500037EEA60ABDEEC77A17EE100A42F8040F27
:104C6000E9D1504600F01CFBB0EE409AB4EE000AC9
:104C700029EE000A00F0CCFAF2EE007AA0EE679A74
:104C8000BAF1000FFDEEC97A17EE90BAF8EEE77AA6
:104C900039EE679A40F3418105F1FF3E06ABCAF158
:104CA000080253F82E3043FA02F000FA02F206A985
:104CB0009B1ACAF1070241F82E30834443FA02F1ED
:104CC000002937DD002D0BF1010B40F32482002277
:104CD00010460DF1140E8C4608E0C3F5807113B137
:104CE000CEF800100120013295420CDD5EF8043F41
:104CF0000028F2D00132C3F1FF039542CEF8003014
:104D00004FF00100F2DC6146BAF1000F10DDBAF19C
:104D1000010F00F00981BAF1020F09D16A1E06AB3A
:104D20000DF1180E53F8223003F03F034EF82230F5
:104D3000022965D0B5EE409AF1EE10FA72D105F174
:104D4000FF3E76450FDC05F18042013A06AB03EBEE
:104D50008202002052F80439424540EA0300F9D1AA
:104D6000002840F00C81731E06AA52F82330002B55
:104D700040F0CE81039B4FF0010E53F804290EF151
:104D8000010E002AF9D0AE446B1C73452DDC029A4B
:104D90009818019A00F1804051190EEB020C659AA7
:104DA000013802EB80001AAA02EB810102EB8C0CA5
:104DB00042AA02EB830550F8043F07EE903AF8EE62
:104DC000E77A002FE1EC017ADFED0A7A09DB4B4646
:104DD0000A46F3EC016A32ED017AA342E6EE877AE5
:104DE000F7D16145E5EC017AE5D1754618E700BFDA
:104DF000D46C000800000000000080430000803BED
:104E0000B7EE000A30EE499A002893D0504605913B
:104E100000F046FA39EE409A0599B5EE409AF1EE67
:104E200010FA8CD0B0EE490ACAF1000009EE90BA2F
:104E30008846DDF810B000F033FA1FED117AB4EEB9
:104E4000C70AF1EE10FAC0F271815FED147A60EEDC
:104E5000277A06A9FDEEE77A6B1CF8EEE77A0AF1ED
:104E6000080AA7EEC70AFDEEE77ABDEEC00A10EE0B
:104E7000102A41F8252017EE902A41F823205046A9
:104E8000B7EE000A019300F00BFA019B002BC0F271
:104E900059819F0042AC06AA381D04EB070E1FED96
:104EA000297A10440EF1040270ED017AF8EEE77AE7
:104EB00067EE807A20EE070A62ED017AA242F3D112
:104EC0000DF5827C0025002EC0F21481A9489FEDCB
:104ED000AA7ADFEDAA7A7146002204E0954209DB46
:104EE000043090ED007AF1EC016A01329642E6EE70
:104EF000877AF3DAAEF1040E56AA02EB8502F44586
:104F000042ED287A05F10105DDD1649A032A00F209
:104F1000AE80DFE802F0DCB5B55010D16B1E06AAFA
:104F200052F823100912CBE66A1E06AB0DF1180EDB
:104F300053F8223003F07F034EF82230F8E6F6EE05
:104F4000007AB4EEE79AF1EE10FA0BDA0021F1E6FE
:104F5000DFED8A7AE0EC017A704505F101057FF416
:104F600035AE4BE6002D0BF1010BC8BF02213FF718
:104F7000AEAEF7EE007A37EEC99A0221DAE606AA5B
:104F800009EE90BA52F82E20DDF810B0734688462C
:104F9000AAF1080A002A7FF472AF0EF18042013AAA
:104FA00006A901EB820252F80419013BAAF1080A92
:104FB0000029F8D063E7002B40F3C18003F1804261
:104FC000013A900056A9CD19041D2EA9083015EDFF
:104FD000287A0C4408442FAD74ED017A77EE876A85
:104FE00077EEE67A77EE877AB0EE667A60ED017A50
:104FF000A842C4ED006AEFD1012B40F3A0809200DB
:1050000056AB1F4402F108002EAB1844043217EDD2
:10501000287A134430AC024673ED017A77EE276AA2
:1050200077EEE67A77EE877AB0EE667A62ED017A0D
:105030009442C3ED006AEFD1DFED507A30ED017A92
:10504000844277EE877AF9D14346002B65D0DDEDB7
:105050002E6A9DED2F7AF1EE677AF1EE666AB1EE77
:10506000477ACBED027ACBED006A8BED017A19EE2F
:10507000903A03F0070057B0BDEC048BBDE8F08F09
:105080003A1D2EA8DFED3D7A024432ED017A8242CC
:1050900077EE877AF9D142467AB3DDED2E6AB1EE2A
:1050A000677A002B76EEE77A8BED007A0ADD2FA87F
:1050B0000122B0EC017A0132934277EE877AF8DA76
:1050C00043460BB1F1EE677ACBED017ACFE756AAF2
:1050D0003A44DFED2A7A9C3A32ED017A013B591CC1
:1050E00077EE877AF8D143460BB1F1EE677ACBEDD4
:1050F000007ABCE7DFED217AFCE69DED2E7ACBED60
:10510000007A002B77EE677AD1DCCBED017AAEE73F
:105110004FF0010E37E60020F6E52E9A2F9BCBEDDF
:10512000027ACBF80020CBF80430A0E7BDEEC00A2D
:1051300006A910EE102A2B4641F825209FE6DFED48
:105140000F7A81E7649A032A91D801A151F822F0DD
:105150006D51000867510008675100083F51000871
:10516000019B9C004AE5DFED057A94E7DFED037AC9
:10517000B9E700BFE06C00080000C93F0000000074
:1051800010EE103A23F00043B3F1485F04DAFDEE6D
:10519000C07A17EE903A23B360EE007A9FED155A6D
:1051A000DFED155A9FED156ADFED156A9FED157A53
:1051B000E7EE855A20EE275AA7EEA56AE7EE866A43
:1051C000A7EEA67A70B127EE457AF6EE006AA0EE59
:1051D000A67ADFED0D6AD7EE870AE5EE260A30EEF5
:1051E000600A7047DFED096AE7EE876AA5EE260AD6
:1051F000704700BFD3C92E2F342FD7B21BEF3836DC
:10520000010D50B98988083CABAA2A3EABAA2ABE38
:1052100010EE102A22F00041CB0D7F3B162B17DC3D
:10522000002B10EE100A19DB1A4919410A4222D04C
:10523000DFED197A70EE277AF5EEC07AF1EE10FA0A
:1052400019DD002A18DB20EA010300EE103A70474E
:10525000B1F1FF4F0FD330EE000A7047DFED0E7A49
:1052600070EE277AF5EEC07AF1EE10FA03DD002A2F
:1052700008DB9FED0A0A70474FF4000242FA03F37D
:105280001844E0E70029FFEE007A18BFB0EE670A85
:10529000704700BFFFFF7F00CAF2497100000000A5
:1052A00008B510EE103A33F000422DED028B11D00C
:1052B000B2F1FF4F11D2B2F5000F13D3D20D024459
:1052C000FE2A2EDC002A1ADD23F0FF4343EAC253F4
:1052D00000EE103ABDEC028B08BDBDEC028B30EE47
:1052E000000A08BD1D4BDFED1E7A984220EE270A0A
:1052F00022DB10EE103AC3F3C752193ADFE712F17E
:10530000160F1EDA4CF2503398420ADC9FED158AD4
:10531000F0EE400AB0EE480A00F02AF820EE080A43
:10532000D8E79FED118AF0EE400AB0EE480A00F08F
:105330001FF820EE080ACDE7DFED0A0A20EE200A6A
:10534000C8E7193223F0FF4343EAC253DFED077A7F
:1053500000EE103A20EE270ABCE700BFB03CFFFF8A
:105360000000004C6042A20DCAF2497100000033F7
:1053700010EE103A23F0004210EE903A03F0004392
:10538000134300EE103A704781F0004102E000BF85
:1053900083F0004330B54FEA41044FEA430594EAF5
:1053A000050F08BF90EA020F1FBF54EA000C55EA30
:1053B000020C7FEA645C7FEA655C00F0E2804FEA01
:1053C0005454D4EB5555B8BF6D420CDD2C4480EAE3
:1053D000020281EA030382EA000083EA010180EA13
:1053E000020281EA0303362D88BF30BD11F0004F61
:1053F0004FEA01314FF4801C4CEA113102D0404297
:1054000061EB410113F0004F4FEA03334CEA1333D1
:1054100002D0524263EB430394EA050F00F0A780E9
:10542000A4F10104D5F1200E0DDB02FA0EFC22FAE4
:1054300005F2801841F1000103FA0EF2801843FAD8
:1054400005F359410EE0A5F120050EF1200E012AC9
:1054500003FA0EFC28BF4CF0020C43FA05F3C01807
:1054600051EBE37101F0004507D54FF0000EDCF180
:10547000000C7EEB00006EEB0101B1F5801F1BD329
:10548000B1F5001F0CD349085FEA30004FEA3C0C2D
:1054900004F101044FEA445212F5800F80F09A8023
:1054A000BCF1004F08BF5FEA500C50F1000041EB27
:1054B000045141EA050130BD5FEA4C0C404141EB2B
:1054C000010111F4801FA4F10104E9D191F0000F52
:1054D00004BF01460020B1FA81F308BF2033A3F1D5
:1054E0000B03B3F120020CDA0C3208DD02F1140CCC
:1054F000C2F10C0201FA0CF021FA02F10CE002F107
:105500001402D8BFC2F1200C01FA02F120FA0CFCFF
:10551000DCBF41EA0C019040E41AA2BF01EB045148
:10552000294330BD6FEA04041F3C1CDA0C340EDC46
:1055300004F11404C4F1200220FA04F001FA02F389
:1055400040EA030021FA04F345EA030130BDC4F147
:105550000C04C4F1200220FA02F001FA04F340EA3C
:105560000300294630BD21FA04F0294630BD94F0ED
:10557000000F83F4801306BF81F480110134013DD4
:105580004EE77FEA645C18BF7FEA655C29D094EA45
:10559000050F08BF90EA020F05D054EA000C04BFC3
:1055A0001946104630BD91EA030F1EBF00210020AE
:1055B00030BD5FEA545C05D14000494128BF41F04D
:1055C000004130BD14F580043CBF01F5801130BDB1
:1055D00001F0004545F0FE4141F470014FF000003C
:1055E00030BD7FEA645C1ABF194610467FEA655CED
:1055F0001CBF0B46024650EA013406BF52EA03358F
:1056000091EA030F41F4002130BD00BF90F0000F7C
:1056100004BF0021704730B54FF4806404F13204B8
:105620004FF000054FF0000150E700BF90F0000F71
:1056300004BF0021704730B54FF4806404F1320498
:1056400010F0004548BF40424FF000013EE700BF68
:1056500042004FEAE2014FEA31014FEA02701FBFF8
:1056600012F07F4393F07F4F81F06051704792F0CA
:10567000000F14BF93F07F4F704730B54FF4607444
:1056800001F0004521F0004120E700BF50EA01028F
:1056900008BF704730B54FF000050AE050EA01023C
:1056A00008BF704730B511F0004502D5404261EBAC
:1056B00041014FF4806404F132045FEA915C3FF4ED
:1056C000DCAE4FF003025FEADC0C18BF03325FEA86
:1056D000DC0C18BF033202EBDC02C2F1200300FA3B
:1056E00003FC20FA02F001FA03FE40EA0E0021FA60
:1056F00002F11444C1E600BF70B54FF0FF0C4CF44A
:10570000E06C1CEA11541DBF1CEA135594EA0C0FFF
:1057100095EA0C0F00F0DEF82C4481EA030621EA3A
:105720004C5123EA4C5350EA013518BF52EA033575
:1057300041F4801143F4801338D0A0FB02CE4FF027
:105740000005E1FB02E506F00042E0FB03E54FF057
:105750000006E1FB03569CF0000F18BF4EF0010E4F
:10576000A4F1FF04B6F5007F64F5407404D25FEA4B
:105770004E0E6D4146EB060642EAC62141EA5551FE
:105780004FEAC52040EA5E504FEACE2EB4F1FD0C40
:1057900088BFBCF5E06F1ED8BEF1004F08BF5FEABE
:1057A000500E50F1000041EB045170BD06F0004670
:1057B00046EA010140EA020081EA0301B4EB5C041D
:1057C000C2BFD4EB0C0541EA045170BD41F4801115
:1057D0004FF0000E013C00F3AB8014F1360FDEBF3A
:1057E000002001F0004170BDC4F10004203C35DA16
:1057F0000C341BDC04F11404C4F1200500FA05F399
:1058000020FA04F001FA05F240EA020001F0004239
:1058100021F0004110EBD37021FA04F642EB0601AF
:105820005EEA430E08BF20EAD37070BDC4F10C04D9
:10583000C4F1200500FA04F320FA05F001FA04F29D
:1058400040EA020001F0004110EBD37041F1000189
:105850005EEA430E08BF20EAD37070BDC4F1200594
:1058600000FA05F24EEA020E20FA04F301FA05F2FC
:1058700043EA020321FA04F001F0004121FA04F2A4
:1058800020EA020000EBD3705EEA430E08BF20EA74
:10589000D37070BD94F0000F0FD101F000464000AE
:1058A00041EB010111F4801F08BF013CF7D041EA30
:1058B000060195F0000F18BF704703F00046520034
:1058C00043EB030313F4801F08BF013DF7D043EA05
:1058D0000603704794EA0C0F0CEA135518BF95EABB
:1058E0000C0F0CD050EA410618BF52EA4306D1D142
:1058F00081EA030101F000414FF0000070BD50EA61
:10590000410606BF1046194652EA430619D094EAEA
:105910000C0F02D150EA013613D195EA0C0F05D1D4
:1059200052EA03361CBF104619460AD181EA030128
:1059300001F0004141F0FE4141F470014FF00000E0
:1059400070BD41F0FE4141F4780170BD70B54FF07B
:10595000FF0C4CF4E06C1CEA11541DBF1CEA1355FB
:1059600094EA0C0F95EA0C0F00F0A7F8A4EB0504DD
:1059700081EA030E52EA03354FEA013100F08880D4
:105980004FEA03334FF0805545EA131343EA12639D
:105990004FEA022245EA111545EA10654FEA002652
:1059A0000EF000419D4208BF964244F1FD0404F50B
:1059B000407402D25B084FEA3202B61A65EB030567
:1059C0005B084FEA32024FF480104FF4002CB6EB24
:1059D000020E75EB030E22BFB61A754640EA0C00A4
:1059E0005B084FEA3202B6EB020E75EB030E22BFE4
:1059F000B61A754640EA5C005B084FEA3202B6EB25
:105A0000020E75EB030E22BFB61A754640EA9C00E3
:105A10005B084FEA3202B6EB020E75EB030E22BFB3
:105A2000B61A754640EADC0055EA060E18D04FEA71
:105A3000051545EA16754FEA06164FEAC30343EA11
:105A400052734FEAC2025FEA1C1CC0D111F4801FDE
:105A50000BD141EA00014FF000004FF0004CB6E7D7
:105A600011F4801F04BF01430020B4F1FD0C88BF76
:105A7000BCF5E06F3FF6AFAEB5EB030C04BFB6EB81
:105A8000020C5FEA500C50F1000041EB045170BD74
:105A90000EF0004E4EEA113114EB5C04C2BFD4EBA1
:105AA0000C0541EA045170BD41F480114FF0000E25
:105AB000013C90E645EA060E8DE60CEA135594EAA1
:105AC0000C0F08BF95EA0C0F3FF43BAF94EA0C0FA4
:105AD0000AD150EA01347FF434AF95EA0C0F7FF419
